{
    "_format": "hh-sol-artifact-1",
    "contractName": "FileStorage",
    "sourceName": "contracts/FileStorage.sol",
    "abi": [
        {
            "anonymous": false,
            "inputs": [
                {
                    "indexed": true,
                    "internalType": "address",
                    "name": "owner",
                    "type": "address"
                },
                {
                    "indexed": false,
                    "internalType": "string",
                    "name": "ipfsHash",
                    "type": "string"
                },
                {
                    "indexed": false,
                    "internalType": "string",
                    "name": "filename",
                    "type": "string"
                },
                {
                    "indexed": false,
                    "internalType": "uint256",
                    "name": "timestamp",
                    "type": "uint256"
                }
            ],
            "name": "FileUploaded",
            "type": "event"
        },
        {
            "inputs": [
                {
                    "internalType": "address",
                    "name": "_owner",
                    "type": "address"
                }
            ],
            "name": "getFilesByOwner",
            "outputs": [
                {
                    "components": [
                        {
                            "internalType": "string",
                            "name": "ipfsHash",
                            "type": "string"
                        },
                        {
                            "internalType": "string",
                            "name": "filename",
                            "type": "string"
                        },
                        {
                            "internalType": "uint256",
                            "name": "timestamp",
                            "type": "uint256"
                        },
                        {
                            "internalType": "address",
                            "name": "owner",
                            "type": "address"
                        }
                    ],
                    "internalType": "struct FileStorage.File[]",
                    "name": "",
                    "type": "tuple[]"
                }
            ],
            "stateMutability": "view",
            "type": "function"
        },
        {
            "inputs": [
                {
                    "internalType": "string",
                    "name": "_ipfsHash",
                    "type": "string"
                },
                {
                    "internalType": "string",
                    "name": "_filename",
                    "type": "string"
                }
            ],
            "name": "uploadFile",
            "outputs": [],
            "stateMutability": "nonpayable",
            "type": "function"
        }
    ],
    "bytecode": "0x608060405234801561001057600080fd5b50610c25806100206000396000f3fe608060405234801561001057600080fd5b50600436106100365760003560e01c8063996d50bf1461003b578063fc08a7d714610057575b600080fd5b6100556004803603810190610050919061057b565b610087565b005b610071600480360381019061006c9190610651565b610200565b60405161007e9190610851565b60405180910390f35b600060405180608001604052808481526020018381526020014281526020013373ffffffffffffffffffffffffffffffffffffffff1681525090506000803373ffffffffffffffffffffffffffffffffffffffff1673ffffffffffffffffffffffffffffffffffffffff168152602001908152602001600020819080600181540180825580915050600190039060005260206000209060040201600090919091909150600082015181600001908161013f9190610a7f565b5060208201518160010190816101559190610a7f565b506040820151816002015560608201518160030160006101000a81548173ffffffffffffffffffffffffffffffffffffffff021916908373ffffffffffffffffffffffffffffffffffffffff16021790555050503373ffffffffffffffffffffffffffffffffffffffff167fbfefa59b16be4b348ad74254e31f16a631ec47799e24b3cba0ba5df3e9c21cab8484426040516101f393929190610baa565b60405180910390a2505050565b60606000808373ffffffffffffffffffffffffffffffffffffffff1673ffffffffffffffffffffffffffffffffffffffff168152602001908152602001600020805480602002602001604051908101604052809291908181526020016000905b828210156104165783829060005260206000209060040201604051806080016040529081600082018054610293906108a2565b80601f01602080910402602001604051908101604052809291908181526020018280546102bf906108a2565b801561030c5780601f106102e15761010080835404028352916020019161030c565b820191906000526020600020905b8154815290600101906020018083116102ef57829003601f168201915b50505050508152602001600182018054610325906108a2565b80601f0160208091040260200160405190810160405280929190818152602001828054610351906108a2565b801561039e5780601f106103735761010080835404028352916020019161039e565b820191906000526020600020905b81548152906001019060200180831161038157829003601f168201915b50505050508152602001600282015481526020016003820160009054906101000a900473ffffffffffffffffffffffffffffffffffffffff1673ffffffffffffffffffffffffffffffffffffffff1673ffffffffffffffffffffffffffffffffffffffff168152505081526020019060010190610260565b505050509050919050565b6000604051905090565b600080fd5b600080fd5b600080fd5b600080fd5b6000601f19601f8301169050919050565b7f4e487b7100000000000000000000000000000000000000000000000000000000600052604160045260246000fd5b6104888261043f565b810181811067ffffffffffffffff821117156104a7576104a6610450565b5b80604052505050565b60006104ba610421565b90506104c6828261047f565b919050565b600067ffffffffffffffff8211156104e6576104e5610450565b5b6104ef8261043f565b9050602081019050919050565b82818337600083830152505050565b600061051e610519846104cb565b6104b0565b90508281526020810184848401111561053a5761053961043a565b5b6105458482856104fc565b509392505050565b600082601f83011261056257610561610435565b5b813561057284826020860161050b565b91505092915050565b600080604083850312156105925761059161042b565b5b600083013567ffffffffffffffff8111156105b0576105af610430565b5b6105bc8582860161054d565b925050602083013567ffffffffffffffff8111156105dd576105dc610430565b5b6105e98582860161054d565b9150509250929050565b600073ffffffffffffffffffffffffffffffffffffffff82169050919050565b600061061e826105f3565b9050919050565b61062e81610613565b811461063957600080fd5b50565b60008135905061064b81610625565b92915050565b6000602082840312156106675761066661042b565b5b60006106758482850161063c565b91505092915050565b600081519050919050565b600082825260208201905092915050565b6000819050602082019050919050565b600081519050919050565b600082825260208201905092915050565b60005b838110156106e45780820151818401526020810190506106c9565b60008484015250505050565b60006106fb826106aa565b61070581856106b5565b93506107158185602086016106c6565b61071e8161043f565b840191505092915050565b6000819050919050565b61073c81610729565b82525050565b61074b81610613565b82525050565b6000608083016000830151848203600086015261076e82826106f0565b9150506020830151848203602086015261078882826106f0565b915050604083015161079d6040860182610733565b5060608301516107b06060860182610742565b508091505092915050565b60006107c78383610751565b905092915050565b6000602082019050919050565b60006107e78261067e565b6107f18185610689565b9350836020820285016108038561069a565b8060005b8581101561083f578484038952815161082085826107bb565b945061082b836107cf565b925060208a01995050600181019050610807565b50829750879550505050505092915050565b6000602082019050818103600083015261086b81846107dc565b905092915050565b7f4e487b7100000000000000000000000000000000000000000000000000000000600052602260045260246000fd5b600060028204905060018216806108ba57607f821691505b6020821081036108cd576108cc610873565b5b50919050565b60008190508160005260206000209050919050565b60006020601f8301049050919050565b600082821b905092915050565b6000600883026109357fffffffffffffffffffffffffffffffffffffffffffffffffffffffffffffffff826108f8565b61093f86836108f8565b95508019841693508086168417925050509392505050565b6000819050919050565b600061097c61097761097284610729565b610957565b610729565b9050919050565b6000819050919050565b61099683610961565b6109aa6109a282610983565b848454610905565b825550505050565b600090565b6109bf6109b2565b6109ca81848461098d565b505050565b5b818110156109ee576109e36000826109b7565b6001810190506109d0565b5050565b601f821115610a3357610a04816108d3565b610a0d846108e8565b81016020851015610a1c578190505b610a30610a28856108e8565b8301826109cf565b50505b505050565b600082821c905092915050565b6000610a5660001984600802610a38565b1980831691505092915050565b6000610a6f8383610a45565b9150826002028217905092915050565b610a88826106aa565b67ffffffffffffffff811115610aa157610aa0610450565b5b610aab82546108a2565b610ab68282856109f2565b600060209050601f831160018114610ae95760008415610ad7578287015190505b610ae18582610a63565b865550610b49565b601f198416610af7866108d3565b60005b82811015610b1f57848901518255600182019150602085019450602081019050610afa565b86831015610b3c5784890151610b38601f891682610a45565b8355505b6001600288020188555050505b505050505050565b600082825260208201905092915050565b6000610b6d826106aa565b610b778185610b51565b9350610b878185602086016106c6565b610b908161043f565b840191505092915050565b610ba481610729565b82525050565b60006060820190508181036000830152610bc48186610b62565b90508181036020830152610bd88185610b62565b9050610be76040830184610b9b565b94935050505056fea264697066735822122090daeb1f63650feec5b12f3d57b7f4510892ead7b545e3a9c68116f716cb915564736f6c63430008130033",
    "linkReferences": {},
    "deployedLinkReferences": {}
}